{
  "contractName": "SensorData",
  "abi": [
    {
      "inputs": [],
      "name": "measurementIndex",
      "outputs": [
        {
          "internalType": "uint256",
          "name": "",
          "type": "uint256"
        }
      ],
      "stateMutability": "view",
      "type": "function"
    },
    {
      "inputs": [
        {
          "internalType": "uint256",
          "name": "",
          "type": "uint256"
        }
      ],
      "name": "measurements",
      "outputs": [
        {
          "internalType": "uint256",
          "name": "humidityAir",
          "type": "uint256"
        },
        {
          "internalType": "uint256",
          "name": "humiditySoil",
          "type": "uint256"
        },
        {
          "internalType": "uint256",
          "name": "temperature",
          "type": "uint256"
        }
      ],
      "stateMutability": "view",
      "type": "function"
    },
    {
      "inputs": [
        {
          "internalType": "uint256",
          "name": "_humidityAir",
          "type": "uint256"
        },
        {
          "internalType": "uint256",
          "name": "_humiditySoil",
          "type": "uint256"
        },
        {
          "internalType": "uint256",
          "name": "_temperature",
          "type": "uint256"
        }
      ],
      "name": "addMeasurement",
      "outputs": [],
      "stateMutability": "nonpayable",
      "type": "function"
    }
  ],
  "bytecode": "0x60806040525f600155348015610013575f80fd5b50610300806100215f395ff3fe608060405234801561000f575f80fd5b506004361061003f575f3560e01c80631dc41574146100435780637791a77214610061578063800dd78d14610093575b5f80fd5b61004b6100af565b604051610058919061015f565b60405180910390f35b61007b600480360381019061007691906101a6565b6100b5565b60405161008a939291906101d1565b60405180910390f35b6100ad60048036038101906100a89190610206565b6100da565b005b60015481565b5f602052805f5260405f205f91509050805f0154908060010154908060020154905083565b5f6040518060600160405280858152602001848152602001838152509050805f8060015481526020019081526020015f205f820151815f0155602082015181600101556040820151816002015590505060015f81548092919061013c90610283565b919050555050505050565b5f819050919050565b61015981610147565b82525050565b5f6020820190506101725f830184610150565b92915050565b5f80fd5b61018581610147565b811461018f575f80fd5b50565b5f813590506101a08161017c565b92915050565b5f602082840312156101bb576101ba610178565b5b5f6101c884828501610192565b91505092915050565b5f6060820190506101e45f830186610150565b6101f16020830185610150565b6101fe6040830184610150565b949350505050565b5f805f6060848603121561021d5761021c610178565b5b5f61022a86828701610192565b935050602061023b86828701610192565b925050604061024c86828701610192565b9150509250925092565b7f4e487b71000000000000000000000000000000000000000000000000000000005f52601160045260245ffd5b5f61028d82610147565b91507fffffffffffffffffffffffffffffffffffffffffffffffffffffffffffffffff82036102bf576102be610256565b5b60018201905091905056fea2646970667358221220767e6e60e6e9e0e397bb1af520f49a57635072c812bf2d6479175b4d094877b164736f6c63430008140033",
  "immutableReferences": {},
  "source": "pragma solidity ^0.8.0;\n\ncontract SensorData {\n    struct Measurement {\n        uint humidityAir;\n        uint humiditySoil;\n        uint temperature;\n    }\n\n    mapping(uint => Measurement) public measurements;\n    uint public measurementIndex = 0;\n\n    function addMeasurement(\n        uint _humidityAir,\n        uint _humiditySoil,\n        uint _temperature\n    ) public {\n        Measurement memory newMeasurement = Measurement(\n            _humidityAir,\n            _humiditySoil,\n            _temperature\n        );\n        measurements[measurementIndex] = newMeasurement;\n        measurementIndex++;\n    }\n}\n",
  "sourcePath": "/Users/sami/Projects/ensi blockchain/contracts/intelligentContract.sol",
  "compiler": {
    "name": "solc",
    "version": "0.8.20+commit.a1b79de6.Emscripten.clang"
  },
  "schemaVersion": "3.4.14",
  "updatedAt": "2023-05-28T19:47:30.486Z",
  "devdoc": {
    "kind": "dev",
    "methods": {},
    "version": 1
  },
  "userdoc": {
    "kind": "user",
    "methods": {},
    "version": 1
  }
}